{
  "contractName": "TodoList",
  "abi": [
    {
      "inputs": [],
      "payable": false,
      "stateMutability": "nonpayable",
      "type": "constructor"
    },
    {
      "anonymous": false,
      "inputs": [
        {
          "indexed": false,
          "internalType": "uint256",
          "name": "id",
          "type": "uint256"
        },
        {
          "indexed": false,
          "internalType": "bool",
          "name": "completed",
          "type": "bool"
        }
      ],
      "name": "TaskCompleted",
      "type": "event"
    },
    {
      "anonymous": false,
      "inputs": [
        {
          "indexed": false,
          "internalType": "uint256",
          "name": "id",
          "type": "uint256"
        },
        {
          "indexed": false,
          "internalType": "string",
          "name": "content",
          "type": "string"
        },
        {
          "indexed": false,
          "internalType": "string",
          "name": "createdBy",
          "type": "string"
        },
        {
          "indexed": false,
          "internalType": "string",
          "name": "hashCode",
          "type": "string"
        },
        {
          "indexed": false,
          "internalType": "string",
          "name": "sender",
          "type": "string"
        },
        {
          "indexed": false,
          "internalType": "bool",
          "name": "completed",
          "type": "bool"
        }
      ],
      "name": "TaskCreated",
      "type": "event"
    },
    {
      "constant": true,
      "inputs": [],
      "name": "taskCount",
      "outputs": [
        {
          "internalType": "uint256",
          "name": "",
          "type": "uint256"
        }
      ],
      "payable": false,
      "stateMutability": "view",
      "type": "function"
    },
    {
      "constant": true,
      "inputs": [
        {
          "internalType": "uint256",
          "name": "",
          "type": "uint256"
        }
      ],
      "name": "tasks",
      "outputs": [
        {
          "internalType": "uint256",
          "name": "id",
          "type": "uint256"
        },
        {
          "internalType": "string",
          "name": "content",
          "type": "string"
        },
        {
          "internalType": "string",
          "name": "createdBy",
          "type": "string"
        },
        {
          "internalType": "string",
          "name": "hashCode",
          "type": "string"
        },
        {
          "internalType": "string",
          "name": "sender",
          "type": "string"
        },
        {
          "internalType": "bool",
          "name": "completed",
          "type": "bool"
        }
      ],
      "payable": false,
      "stateMutability": "view",
      "type": "function"
    },
    {
      "constant": false,
      "inputs": [
        {
          "internalType": "string",
          "name": "_content",
          "type": "string"
        },
        {
          "internalType": "string",
          "name": "_createdBy",
          "type": "string"
        },
        {
          "internalType": "string",
          "name": "_hashCode",
          "type": "string"
        },
        {
          "internalType": "string",
          "name": "_sender",
          "type": "string"
        }
      ],
      "name": "createTask",
      "outputs": [],
      "payable": false,
      "stateMutability": "nonpayable",
      "type": "function"
    },
    {
      "constant": false,
      "inputs": [
        {
          "internalType": "uint256",
          "name": "_id",
          "type": "uint256"
        }
      ],
      "name": "toggleCompleted",
      "outputs": [],
      "payable": false,
      "stateMutability": "nonpayable",
      "type": "function"
    }
  ],
  "bytecode": "0x6080604052600080553480156200001557600080fd5b50620000be6040518060400160405280601c81526020017f436865636b206f75742064617070756e69766572736974792e636f6d0000000081525060405180604001604052806002815260200161686960f01b815250604051806040016040528060098152602001680c28660609890c2a6d60bb1b8152506040518060400160405280600c81526020016b1cd95b99195c9019db585a5b60a21b815250620000c460201b60201c565b62000442565b6000805460019081018083556040805160c08101825282815260208082018a81528284018a9052606083018990526080830188905260a08301879052938652848152919094208451815591518051929362000128939085019291909101906200039d565b5060408201518051620001469160028401916020909101906200039d565b5060608201518051620001649160038401916020909101906200039d565b5060808201518051620001829160048401916020909101906200039d565b5060a08201518160050160006101000a81548160ff0219169083151502179055509050507fe1e94f490d2224e01e767c0d25b696f19dc4c3593849e4db330338c945ebaf3560005485858585600060405180878152602001806020018060200180602001806020018615151515815260200185810385528a818151815260200191508051906020019080838360005b838110156200022b57818101518382015260200162000211565b50505050905090810190601f168015620002595780820380516001836020036101000a031916815260200191505b5085810384528951815289516020918201918b019080838360005b838110156200028e57818101518382015260200162000274565b50505050905090810190601f168015620002bc5780820380516001836020036101000a031916815260200191505b5085810383528851815288516020918201918a019080838360005b83811015620002f1578181015183820152602001620002d7565b50505050905090810190601f1680156200031f5780820380516001836020036101000a031916815260200191505b50858103825287518152875160209182019189019080838360005b83811015620003545781810151838201526020016200033a565b50505050905090810190601f168015620003825780820380516001836020036101000a031916815260200191505b509a505050505050505050505060405180910390a150505050565b828054600181600116156101000203166002900490600052602060002090601f016020900481019282601f10620003e057805160ff191683800117855562000410565b8280016001018555821562000410579182015b8281111562000410578251825591602001919060010190620003f3565b506200041e92915062000422565b5090565b6200043f91905b808211156200041e576000815560010162000429565b90565b610e3980620004526000396000f3fe608060405234801561001057600080fd5b506004361061004c5760003560e01c8063455f50241461005157806372a9f819146100705780638d977672146102a3578063b6cb58a51461047c575b600080fd5b61006e6004803603602081101561006757600080fd5b5035610496565b005b61006e6004803603608081101561008657600080fd5b810190602081018135600160201b8111156100a057600080fd5b8201836020820111156100b257600080fd5b803590602001918460018302840111600160201b831117156100d357600080fd5b91908080601f0160208091040260200160405190810160405280939291908181526020018383808284376000920191909152509295949360208101935035915050600160201b81111561012557600080fd5b82018360208201111561013757600080fd5b803590602001918460018302840111600160201b8311171561015857600080fd5b91908080601f0160208091040260200160405190810160405280939291908181526020018383808284376000920191909152509295949360208101935035915050600160201b8111156101aa57600080fd5b8201836020820111156101bc57600080fd5b803590602001918460018302840111600160201b831117156101dd57600080fd5b91908080601f0160208091040260200160405190810160405280939291908181526020018383808284376000920191909152509295949360208101935035915050600160201b81111561022f57600080fd5b82018360208201111561024157600080fd5b803590602001918460018302840111600160201b8311171561026257600080fd5b91908080601f016020809104026020016040519081016040528093929190818152602001838380828437600092019190915250929550610805945050505050565b6102c0600480360360208110156102b957600080fd5b5035610aca565b60405180878152602001806020018060200180602001806020018615151515815260200185810385528a818151815260200191508051906020019080838360005b83811015610319578181015183820152602001610301565b50505050905090810190601f1680156103465780820380516001836020036101000a031916815260200191505b5085810384528951815289516020918201918b019080838360005b83811015610379578181015183820152602001610361565b50505050905090810190601f1680156103a65780820380516001836020036101000a031916815260200191505b5085810383528851815288516020918201918a019080838360005b838110156103d95781810151838201526020016103c1565b50505050905090810190601f1680156104065780820380516001836020036101000a031916815260200191505b50858103825287518152875160209182019189019080838360005b83811015610439578181015183820152602001610421565b50505050905090810190601f1680156104665780820380516001836020036101000a031916815260200191505b509a505050505050505050505060405180910390f35b610484610d2b565b60408051918252519081900360200190f35b61049e610d31565b600082815260016020818152604092839020835160c0810185528154815281840180548651600296821615610100026000190190911695909504601f810185900485028601850190965285855290949193858401939092908301828280156105475780601f1061051c57610100808354040283529160200191610547565b820191906000526020600020905b81548152906001019060200180831161052a57829003601f168201915b5050509183525050600282810180546040805160206001841615610100026000190190931694909404601f810183900483028501830190915280845293810193908301828280156105d95780601f106105ae576101008083540402835291602001916105d9565b820191906000526020600020905b8154815290600101906020018083116105bc57829003601f168201915b505050918352505060038201805460408051602060026001851615610100026000190190941693909304601f810184900484028201840190925281815293820193929183018282801561066d5780601f106106425761010080835404028352916020019161066d565b820191906000526020600020905b81548152906001019060200180831161065057829003601f168201915b505050918352505060048201805460408051602060026001851615610100026000190190941693909304601f81018490048402820184019092528181529382019392918301828280156107015780601f106106d657610100808354040283529160200191610701565b820191906000526020600020905b8154815290600101906020018083116106e457829003601f168201915b50505091835250506005919091015460ff16151560209182015260a082018051159052600084815260018083526040909120835181558383015180519495508594919361075393850192910190610d69565b506040820151805161076f916002840191602090910190610d69565b506060820151805161078b916003840191602090910190610d69565b50608082015180516107a7916004840191602090910190610d69565b5060a091820151600591909101805460ff191691151591909117905581015160408051848152911515602083015280517fe21fa966ca5cd02748c0752352d18c48165e61cb55b4c29cccf924b5a95fcff19281900390910190a15050565b6000805460019081018083556040805160c08101825282815260208082018a81528284018a9052606083018990526080830188905260a08301879052938652848152919094208451815591518051929361086793908501929190910190610d69565b5060408201518051610883916002840191602090910190610d69565b506060820151805161089f916003840191602090910190610d69565b50608082015180516108bb916004840191602090910190610d69565b5060a08201518160050160006101000a81548160ff0219169083151502179055509050507fe1e94f490d2224e01e767c0d25b696f19dc4c3593849e4db330338c945ebaf3560005485858585600060405180878152602001806020018060200180602001806020018615151515815260200185810385528a818151815260200191508051906020019080838360005b8381101561096257818101518382015260200161094a565b50505050905090810190601f16801561098f5780820380516001836020036101000a031916815260200191505b5085810384528951815289516020918201918b019080838360005b838110156109c25781810151838201526020016109aa565b50505050905090810190601f1680156109ef5780820380516001836020036101000a031916815260200191505b5085810383528851815288516020918201918a019080838360005b83811015610a22578181015183820152602001610a0a565b50505050905090810190601f168015610a4f5780820380516001836020036101000a031916815260200191505b50858103825287518152875160209182019189019080838360005b83811015610a82578181015183820152602001610a6a565b50505050905090810190601f168015610aaf5780820380516001836020036101000a031916815260200191505b509a505050505050505050505060405180910390a150505050565b600160208181526000928352604092839020805481840180548651600296821615610100026000190190911695909504601f81018590048502860185019096528585529094919392909190830182828015610b665780601f10610b3b57610100808354040283529160200191610b66565b820191906000526020600020905b815481529060010190602001808311610b4957829003601f168201915b50505060028085018054604080516020601f6000196101006001871615020190941695909504928301859004850281018501909152818152959695945090925090830182828015610bf85780601f10610bcd57610100808354040283529160200191610bf8565b820191906000526020600020905b815481529060010190602001808311610bdb57829003601f168201915b5050505060038301805460408051602060026001851615610100026000190190941693909304601f8101849004840282018401909252818152949594935090830182828015610c885780601f10610c5d57610100808354040283529160200191610c88565b820191906000526020600020905b815481529060010190602001808311610c6b57829003601f168201915b5050505060048301805460408051602060026001851615610100026000190190941693909304601f8101849004840282018401909252818152949594935090830182828015610d185780601f10610ced57610100808354040283529160200191610d18565b820191906000526020600020905b815481529060010190602001808311610cfb57829003601f168201915b5050506005909301549192505060ff1686565b60005481565b6040518060c0016040528060008152602001606081526020016060815260200160608152602001606081526020016000151581525090565b828054600181600116156101000203166002900490600052602060002090601f016020900481019282601f10610daa57805160ff1916838001178555610dd7565b82800160010185558215610dd7579182015b82811115610dd7578251825591602001919060010190610dbc565b50610de3929150610de7565b5090565b610e0191905b80821115610de35760008155600101610ded565b9056fea265627a7a723158206448496fa4da40b0a01dfeef24657a85c0969e6bf6f7b856fe5a86292c4e97cc64736f6c63430005100032",
  "source": "pragma solidity ^0.5.0;\r\n\r\ncontract TodoList {\r\n  uint public taskCount = 0;\r\n\r\n  struct Task {\r\n    uint id;\r\n    string content;\r\n    string createdBy;\r\n    string hashCode;\r\n    string sender;\r\n    bool completed;\r\n  }\r\n\r\n  mapping(uint => Task) public tasks;\r\n\r\n  event TaskCreated(\r\n    uint id,\r\n    string content,\r\n    string createdBy,\r\n    string hashCode,\r\n    string sender,\r\n    bool completed\r\n  );\r\n\r\n  event TaskCompleted(\r\n    uint id,\r\n    bool completed\r\n  );\r\n\r\n  constructor() public {\r\n    createTask(\"Check out dappuniversity.com\", \"hi\", \"aC00LHaSh\", \"sender@gmail\");\r\n  }\r\n\r\n  function createTask(string memory _content, string memory _createdBy, string memory _hashCode, string memory _sender) public {\r\n    taskCount ++;\r\n    tasks[taskCount] = Task(taskCount, _content, _createdBy, _hashCode, _sender, false);\r\n    emit TaskCreated(taskCount, _content, _createdBy, _hashCode, _sender, false);\r\n  }\r\n\r\n  function toggleCompleted(uint _id) public {\r\n    Task memory _task = tasks[_id];\r\n    _task.completed = !_task.completed;\r\n    tasks[_id] = _task;\r\n    emit TaskCompleted(_id, _task.completed);\r\n  }\r\n\r\n}\r\n",
  "sourcePath": "C:\\Users\\isaac\\OneDrive\\Documents\\GitHub\\eth-signature-auth\\contracts\\TodoList.sol",
  "compiler": {
    "name": "solc",
    "version": "0.5.16+commit.9c3226ce.Emscripten.clang"
  },
  "schemaVersion": "3.4.4",
  "updatedAt": "2022-07-15T14:50:08.719Z",
  "devdoc": {
    "methods": {}
  },
  "userdoc": {
    "methods": {}
  }
}